:100000000C9482010C94AA010C94AA010C94AA01EC
:100010000C94AA010C94AA010C94AA010C94AA01B4
:100020000C94AA010C94AA010C9427070C94920733
:100030000C94AA010C94AA010C94AA010C94AA0194
:100040000C94AA010C94AA010C94AA010C94AA0184
:100050000C94AA010C94AA010C94AA010C94F50426
:100060000C94AA010C94AA010C94AA010C94AA0164
:100070000C94AA010C94AA010C94AA010C94AA0154
:100080000C9464040C94AA010C94AA010C94AA0187
:100090000C94AA010C94AA010C94AA010C94AA0134
:1000A0000C94AA010C94AA010C94AA01D004D304C4
:1000B000C604CA04F404F404F404D704DB04DF0423
:1000C000E504E904F404EF04000000002400270024
:1000D0002A002D003000070605040100080A0B0C59
:1000E0000D09000000002300260029002C002F002D
:1000F000080B0002020201000904000001020200D4
:100100000005240010010524010101042402060554
:1001100024060001070581031000400904010002C4
:100120000A000000070502024000000705830240A4
:100130000000090402000103000000092101010080
:10014000012265000705840340000105010902A1A1
:10015000010901A1008501050919012903150025DF
:10016000019503750181029501750581030501095A
:1001700030093109381581257F750895038106C03E
:10018000C005010906A1018502050719E029E71547
:100190000025017501950881029501750881039577
:1001A000067508150025650507190029658100C039
:1001B00012010002020000404123368000010102CA
:1001C00000011803410072006400750069006E00B0
:1001D0006F0020004C004C0043000403090422037C
:1001E000410072006400750069006E006F0020001D
:1001F0004C0065006F006E006100720064006F00CB
:10020000120100020000004041233680000101027B
:10021000000100C18081C100000000000000002A30
:100220002B2800000000000000000000000000007B
:10023000000000000000002C9EB4A0A1A2A434A6DF
:10024000A7A5AE362D3738271E1F202122232425AF
:1002500026B333B62EB7B89F8485868788898A8B64
:100260008C8D8E8F909192939495969798999A9B56
:100270009C9D2F3130A3AD350405060708090A0BF4
:100280000C0D0E0F101112131415161718191A1B36
:100290001C1DAFB1B0B50000000000250028002BE8
:1002A000002E0031000404040404030405020202C9
:1002B00002040302020202060606060606040402FF
:1002C00002020404080201104080401020408040D7
:1002D000800802040180402010020110801020409C
:1002E000400000000200080E0000030401000B00A3
:1002F00000000000000000000000000000000003FB
:10030000BE0C980C11241FBECFEFDAE0DEBFCDBFCC
:1003100011E0A0E0B1E0EAE9FDE102C005900D9234
:10032000A636B107D9F722E0A6E6B1E001C01D92DA
:10033000AE30B207E1F711E0C1E8D1E004C0219787
:10034000FE010E94BA0EC038D107C9F70E942509E4
:100350000C940E0D0C94000083E08093E9008091D2
:10036000F200882319F08AE38093E8000895209131
:10037000D8013091D9018091DA019091DB012817E1
:100380003907A9F0E091DA01F091DB01E856FE4F60
:1003900080812091DA013091DB012F5F3F4F2F7375
:1003A00033273093DB012093DA0190E008958FEF3B
:1003B0009FEF08952091D8013091D9018091DA0101
:1003C0009091DB012817390749F0E091DA01F091AB
:1003D000DB01E856FE4F808190E008958FEF9FEF9C
:1003E00008958091D8019091D9012091DA0130913E
:1003F000DB01821B930B8F7399270895CF93DF93B3
:100400001F92CDB7DEB78091D8019091D9010196A6
:100410008F73992772E05BE6A4E62091DA013091B0
:10042000DB018217930709F446C02091E2012111F4
:1004300023C02FEF3FEF09C021153105A9F56FBF8C
:1004400021303105B1F7298130E02F3F4FEF3407DC
:1004500091F1E091D801F091D901E856FE4F208347
:100460009093D9018093D8018091D8019091D901BE
:1004700001968F739927D1CF6FB7F8947093E900E5
:100480002091F20030E01216130614F421E030E05F
:10049000422FFE013196415078F22898A093E00156
:1004A000B091F100B193F7CF4091F2004111C7CF65
:1004B0005093E800C4CF0F90DF91CF910895089535
:1004C000CF92DF92EF92FF920F931F93CF93DF9320
:1004D0006C01EB017B01E40EF51E00E010E0CE158F
:1004E000DF0561F06991D601ED91FC910190F081F9
:1004F000E02DC6010995080F191FF1CFC801DF9142
:10050000CF911F910F91FF90EF90DF90CF900895C2
:10051000823108F08251E82FF0E0EA52FF4FE49177
:1005200080917B00E3FB222720F930E095E0220F49
:10053000331F9A95E1F78F7D282B20937B008091C4
:10054000000120E4829FC0011124E770E82BE093B2
:100550007C0080917A00806480937A0080917A0098
:1005600086FDFCCF809178002091790090E0922B5D
:100570000895CF93DF9390E0FC01ED53FD4F24915C
:10058000FC01EB55FD4F8491882361F190E0880FC9
:10059000991FFC01E853FF4FC591D491FC01E95626
:1005A000FD4FA591B491611109C09FB7F89488815E
:1005B000209582238883EC912E230BC0623061F456
:1005C0009FB7F8948881322F309583238883EC91EC
:1005D0002E2B2C939FBF06C08FB7F894E8812E2B4B
:1005E00028838FBFDF91CF9108953FB7F894809112
:1005F0006C0190916D01A0916E01B0916F0126B5D3
:10060000A89B05C02F3F19F00196A11DB11D3FBF4A
:10061000BA2FA92F982F8827820F911DA11DB11DD8
:10062000BC01CD0142E0660F771F881F991F4A95D4
:10063000D1F70895CF92DF92EF92FF92CF93DF939D
:100640006B017C010E94F502EB01C114D104E104AD
:10065000F10479F00E94F5026C1B7D0B683E73403B
:10066000A0F381E0C81AD108E108F108C851DC4FB5
:10067000ECCFDF91CF91FF90EF90DF90CF90089576
:100680000F931F93CF93DF938C01EB018AE391E0EB
:100690000E948606CC0FDD1FC05EDE4F88819981E7
:1006A0000E9486060E94740681E090E0F80193871C
:1006B0008287DF91CF911F910F9108950F931F9320
:1006C000CF93DF93DB01A40FB51FFB016EEFEA1799
:1006D000FB0791F187FF02C0249101C020810091A6
:1006E000DE011091DF01C091DC01D091DD010C171A
:1006F0001D07B4F49091E8009570E1F39091E80043
:1007000092FD1CC02093F1002091DE013091DF01A9
:100710002F5F3F4F2F733327232B11F46093E80093
:100720002091DE013091DF012F5F3F4F3093DF01D9
:100730002093DE013196CBCFCA0102C08FEF9FEF2D
:10074000DF91CF911F910F9108957F928F929F9289
:10075000AF92BF92CF92DF92EF92FF920F931F93CF
:10076000CF93DF93D82E8B017A018091E201882309
:1007700091F0C42FDF2D8AEFC82E8D2D8770B82EF3
:1007800090E4992E8D2D8072882E2AE3A22E8D2D35
:100790008074782E1BC08FEF9FEF56C08FB7F894F0
:1007A000B092E9009091E80095FF13C09091F2009B
:1007B000292D291B8FBF21110EC0CA94CC2059F3BB
:1007C00061E070E080E090E00E941A03209731F72A
:1007D00032C020E0EFCF822F90E0C817D9070CF489
:1007E0002C2F822F90E0C81BD90B3FB7F894B09202
:1007F000E900882029F02150A0F01092F100FBCFF1
:10080000F801D7FE0AC0215050F044914093F10006
:100810003196F9CF41914093F1002150D8F7080F5C
:10082000191F8091E80085FF0CC0209711F471100A
:1008300008C03FBFCBCF5D9884E68093E101C7013C
:1008400003C0A092E800F5CFDF91CF911F910F91E7
:10085000FF90EF90DF90CF90BF90AF909F908F90E0
:100860007F9008950F931F93CF93DF931F92CDB77F
:10087000DEB78C01698380910801882359F041E03B
:1008800050E0BE016F5F7F4F83E00E94A503181602
:1008900019063CF081E090E0F8019383828380E0C8
:1008A00090E00F90DF91CF911F910F9108956150CB
:1008B00030F02091F100FC0120830196F8CF2898B8
:1008C00084E68093E00108951F920F920FB60F9275
:1008D00011248F939F93AF93BF93EF93FF938091D6
:1008E000880190918901A0918A01B0918B01892B97
:1008F0008A2B8B2B51F190917F01E0918001F09137
:10090000810180818927808380918801909189016C
:10091000A0918A01B0918B01181619061A061B06C0
:1009200004F58091880190918901A0918A01B0918C
:100930008B010197A109B1098093880190938901E6
:10094000A0938A01B0938B010CC01092710080912A
:100950007F01E0918001F091810190818095892350
:100960008083FF91EF91BF91AF919F918F910F90F5
:100970000FBE0F901F90189590E0FC013197EE305C
:10098000F10590F5EA5AFF4F0C94BA0E8091800061
:100990008F7703C0809180008F7D809380000895C1
:1009A00084B58F7702C084B58F7D84BD0895809112
:1009B00090008F7707C0809190008F7D03C0809159
:1009C0009000877F8093900008958091C0008F777A
:1009D00003C08091C0008F7D8093C00008958091F6
:1009E000C200877F8093C20008951F920F920FB6B6
:1009F0000F9211242F933F938F939F93AF93BF93A5
:100A00008091700190917101A0917201B091730178
:100A100030916B0123E0230F2D3720F40196A11DA7
:100A2000B11D05C026E8230F0296A11DB11D20931C
:100A30006B018093700190937101A0937201B09348
:100A4000730180916C0190916D01A0916E01B09144
:100A50006F010196A11DB11D80936C0190936D01F2
:100A6000A0936E01B0936F01BF91AF919F918F9151
:100A70003F912F910F900FBE0F901F901895EF92FE
:100A8000FF921F93CF93DF93EC01162FE881F9813A
:100A90000480F581E02D09957C01E881F9810680CB
:100AA000F781E02D612FCE010995C7019927DF91CC
:100AB000CF911F91FF90EF9008950F931F93CF93C5
:100AC000DF931F92CDB7DEB78C01FC01168217822F
:100AD0001086118612861386148282E0898341E093
:100AE00050E0BE016F5F7F4F84E00E94A503B80114
:100AF0006C5F7F4F48E050E084E40E94A5030F90B4
:100B0000DF91CF911F910F9108950F931F93CF9372
:100B1000DF931F92CDB7DEB7DC01683810F068585C
:100B20002DC0E62FF0E067FF11C0E058F10981E029
:100B300090E001C0880FEA95EAF714969C9114970B
:100B4000892B14968C93149760E018C0E95EFD4FD2
:100B50006491611109C081E090E013969C938E939B
:100B6000129780E090E04EC067FF08C014968C9109
:100B70001497826014968C9314976F7716968C91C5
:100B80001697681751F117968C911797681729F1E6
:100B900018968C911897681701F119968C911997EE
:100BA0006817D9F01A968C911A976817B1F01B96AE
:100BB0008C911B97681789F0FD01369680E090E0D4
:100BC0002191211105C0FD01E80FF91F668305C0C1
:100BD000019686309105A1F7BECF8D0182E0898311
:100BE00041E050E0BE016F5F7F4F84E00E94A503AB
:100BF000B8016C5F7F4F48E050E084E40E94A50399
:100C000081E090E00F90DF91CF911F910F910895B7
:100C10000F931F93CF93DF931F92CDB7DEB7DC0105
:100C2000683810F0685825C0E62FF0E067FF12C062
:100C3000E058F10981E090E001C0880FEA95EAF7F9
:100C4000809514969C911497892314968C931497ED
:100C500060E00FC0E95EFD4F6491662361F167FFBC
:100C600008C014968C9114978D7F14968C931497CA
:100C70006F77FD0186E0662321F09681691301C03C
:100C80001682815031968111F6CF8D0182E08983E1
:100C900041E050E0BE016F5F7F4F84E00E94A503FA
:100CA000B8016C5F7F4F48E050E084E40E94A503E8
:100CB00081E090E002C080E090E00F90DF91CF9162
:100CC0001F910F91089542E450E060EF70E080E8DA
:100CD0000E945E0349E150E062E371E080E80E9417
:100CE0005E0383E090E00895CF93DF936DE083EEA1
:100CF00091E00E943204EC016AE083EE91E00E94F0
:100D000032048C0F9D1FDF91CF910895009769F0F9
:100D1000FC0101900020E9F73197AF01481B590B06
:100D2000BC0183EE91E00C94600280E090E00895B5
:100D30008F929F92AF92BF92EF92FF920F931F9369
:100D4000CF93DF93CDB7DEB7A1970FB6F894DEBF90
:100D50000FBECDBF162F042F19A2423008F40AE0AF
:100D60007E0121E2E20EF11C802E912CA12CB12CEF
:100D7000612FA50194010E94980E029F1019112461
:100D800081E0E81AF1081A3014F4105D01C0195C12
:100D9000F7011083122F732FCA01232B242B252B2D
:100DA00039F7C7010E948606A1960FB6F894DEBFF8
:100DB0000FBECDBFDF91CF911F910F91FF90EF90AC
:100DC000BF90AF909F908F900895CF93DF938091C5
:100DD00009018930D9F4EFEFF2E0E4918FEF8093CD
:100DE0000901E13059F038F0E33071F0E43071F48A
:100DF000109272000BC010926E0008C080916F00BC
:100E00008D7F80936F0002C010927100EAEEF2E0D5
:100E10008491ECECF2E0D491EEEAF2E0C491CC23C0
:100E200099F081110E94BC04EC2FF0E0EE0FFF1F3F
:100E3000E956FD4FA591B4919FB7F8948C91ED2F91
:100E4000E095E823EC939FBFDF91CF9108951F9227
:100E50000F920FB60F9211242F933F934F935F93EE
:100E60006F937F938F939F93AF93BF93EF93FF9372
:100E70008091E1001092E10083FF0FC01092E90021
:100E800091E09093EB001092EC0092E39093ED00D0
:100E90001092E20198E09093F00082FF32C083E06C
:100EA0008093E9008091F200882319F08AE380930F
:100EB000E8009FB7F89482E08093E9008091F20007
:100EC0009FBF882321F083EE91E00E94FE01809174
:100ED000E101882339F08091E10181508093E101A3
:100EE000882369F08091E001882359F08091E00126
:100EF00081508093E001811104C0289A02C05D9A5C
:100F0000F1CFFF91EF91BF91AF919F918F917F9121
:100F10006F915F914F913F912F910F900FBE0F9066
:100F20001F9018951F920F920FB60F921124EF92F7
:100F3000FF921F932F933F934F935F936F937F93F2
:100F40008F939F93AF93BF93EF93FF93CF93DF93D1
:100F5000CDB7DEB76197DEBFCDBF1092E9008091BB
:100F6000E80083FF56C168E0CE010A960E9457044C
:100F700082EF8093E8009A8597FF05C08091E80092
:100F800080FFFCCF03C08EEF8093E800892F80762E
:100F900009F0B2C08B85811105C01092F10010924A
:100FA000F10030C1282F2D7F213009F42BC185306D
:100FB00049F48091E80080FFFCCF8C8580688093A5
:100FC000E30020C1863009F06DC01D85E888F988EE
:100FD0001092E9001092DF011092DE01123091F5BB
:100FE0001092DD011092DC010E94630699E0BE01BF
:100FF0006F5F7F4FFB01292F11922A95E9F79983A3
:101000001A8391E09E8390E898879AEF99872091C0
:10101000DE013091DF01275F3F4F3C832B838D83BF
:101020001092E9001092DF011092DE01F092DD01D2
:10103000E092DC0149E050E080E00E945E030E9403
:101040006306E0C0F092DD01E092DC01123259F457
:1010500045E650E06BE471E080E80E945E03892B76
:1010600009F4D4C0CFC0113069F4888999890897F0
:1010700011F410930902809109028111B5C060E05A
:1010800072E0BAC0133009F0C1C08C85882309F41E
:10109000AEC0823009F4AEC0813009F0B7C062EC56
:1010A00071E0AAC0873009F4B1C0883021F481E032
:1010B0008093F100A7C0893009F0A4C0937009F0B3
:1010C000A5C0E3E1F2E081E031E096E38093E9003E
:1010D0003093EB0024912093EC009093ED008F5F10
:1010E0003196853099F78EE78093EA001092EA00F6
:1010F0008C858093E20186C0888999891092E900E5
:101100001092DF011092DE019093DD018093DC01EB
:101110008E85811159C08B859A85913A49F4813227
:1011200009F074C047E050E061E071E080E068C021
:10113000913209F06BC0803269F48091E80082FF3F
:10114000FCCF67E081E091E00E9457048BEF809331
:10115000E80058C0823209F059C08C85809308019C
:101160008091010190910201A0910301B0910401CD
:10117000803B9440A105B10509F044C0809108016D
:1011800080FD11C087E797E79093010880930008DE
:101190009BE088E10FB6F894A895809360000FBE9D
:1011A000909360002FC00FB6F894A89580916000CE
:1011B000886180936000109260000FBEA895109225
:1011C0000108109200081EC0823001F58B859A85B7
:1011D000913A21F48D7F8130C9F414C09132B1F479
:1011E0008A50823098F40EC060EB71E005C06AED61
:1011F00071E002C06EED71E0FB01449150E080E8C7
:101200000E945E038EEF8093E80003C081E280932A
:10121000EB0061960FB6F894DEBF0FBECDBFDF9135
:10122000CF91FF91EF91BF91AF919F918F917F915E
:101230006F915F914F913F912F911F91FF90EF9090
:101240000F900FBE0F901F901895CF93DF9300D093
:1012500000D000D0CDB7DEB7789484B5826084BD6D
:1012600084B5816084BD85B5826085BD85B58160AA
:1012700085BD80916E00816080936E001092810028
:1012800080918100826080938100809181008160E3
:1012900080938100809180008160809380008091A4
:1012A0009100826080939100809191008160809391
:1012B0009100809190008160809390008091C100A6
:1012C00084608093C1008091C10082608093C100DE
:1012D0008091C10081608093C1008091C3008160D2
:1012E0008093C3008091C00082608093C000809191
:1012F000C20081608093C20080917A0084608093F4
:101300007A0080917A00826080937A0080917A00DE
:10131000816080937A0080917A00806880937A005F
:101320001092E20181E08093D70080EA8093D80098
:1013300082E189BD09B400FEFDCF61E070E080E08C
:1013400090E00E941A0380E98093D8008CE080939B
:10135000E2001092E000559A209A60E083E00E943B
:10136000B90261E08DE00E94B90281E08093000142
:101370008091F1010E94880261E070E080E090E0DD
:101380000E941A0361E089E00E94B902E9E6CE2ECC
:10139000EAE0DE2E44244A94542C32016EEAA62E52
:1013A00062E0B62E7CEC872E72E0972E8FB7F89411
:1013B00040917001509171016091720170917301BF
:1013C0008FBF8091FD019091FE01A091FF01B0912E
:1013D00000028A019B01081B190B2A0B3B0B809111
:1013E000010290910202092E000CAA0BBB0B0817F8
:1013F00019072A073B0708F46BC04093FD0150937F
:10140000FE016093FF017093000204E010E01A8275
:1014100019828091F1010E94880229813A81280F66
:10142000391F3A8329830150110999F7A90137FF20
:1014300004C04D5F5F4F5A83498389819A81959596
:101440008795959587959A8389838091F3019091EB
:10145000F401E981FA818E179F070CF18091F70161
:101460009091F801E091F501F091F60160E070E0F3
:1014700068177907A4F4A191B1912D913C9111972E
:1014800049815A81241735073CF412962D913C91DD
:101490001397421753072CF06F5F7F4FE9CF6FEF21
:1014A0007FEF80910302909104020097E1F4809114
:1014B0000702909108028617970751F07093060271
:1014C0006093050281E090E0909304028093030210
:1014D000EAE7F1E0FA83E98306E711E0FC83EB83B6
:1014E0001E821D8230C0019799F7409105025091EC
:1014F00006025A8349834617570701F58091FB017D
:101500009091FC018130910541F46F3F7F4F81F450
:10151000609107027091080204C0892B49F477FD9D
:1015200007C0E091F901F091FA0181EF91E009958E
:1015300089819A8190930802809307021092040295
:1015400010920302C5CF2D813E812D5F3F4FF901DF
:10155000EF51FD4F8491F901ED53FD4F2490F901B6
:10156000EB55FD4F34903320A1F081110E94BC0453
:10157000E32DF0E0EE0FFF1FEE51FF4FA591B49168
:10158000EC912E2231E020E009F430E0832F922FFD
:1015900002C080E090E0482FEB81FC818193FC83C6
:1015A000EB83F8012081022E000C330B281739073A
:1015B00069F0892B49F4809174019091750101962D
:1015C0009093750180937401F80140832D813E81D1
:1015D0002F5F3F4F3E832D830F5F1F4F2430310518
:1015E00009F0B1CF212C312C80E090E0E981FA8123
:1015F0004191FA83E98321E030E0442311F020E0B7
:1016000030E0082E02C0220F331F0A94E2F7222A8C
:10161000332A01968430910549F780919601909183
:1016200097018215930599F4609194017091950149
:101630006E197F0980E090E00E94320E20E030E0D9
:1016400048E452E40E946F0E18160CF061C100E0ED
:1016500010E0C101002E02C0959587950A94E2F72B
:1016600080FF03C08BE491E002C08DE491E00E9412
:1016700086060F5F1F4F0430110559F783E10E9462
:1016800088027C0189E491E00E9486068FE491E063
:101690000E9486064AE061E070E080E090E00E94EF
:1016A000980681E591E00E948606B7010F2C000C98
:1016B000880B990B4AE00E949806F0929501E092FF
:1016C00094018AE491E00E9486060E94740680914B
:1016D0000901893021F08F3F09F008C104C0EFEF04
:1016E000F2E0149192C089E080930901EFEFF2E0FB
:1016F00014911F3F09F4FAC0113009F440C038F1C9
:10170000133009F45DC0143009F07FC01092C0009E
:101710001092C1008091C10088608093C1008091C7
:10172000C10081608093C100F5018491E82FF0E051
:10173000EE0FFF1FE956FD4F85919491F4018491BE
:1017400080937E0161E089E00E94B902A1C014BCCF
:1017500015BC84B5826084BD85B5816085BDF50109
:101760008491E82FF0E0EE0FFF1FE956FD4F8591C1
:101770009491F40184918093830110E048C0109209
:1017800080001092810080918100886080938100A8
:1017900080918100816080938100F5018491E82F20
:1017A000F0E0EE0FFF1FE956FD4F85919491F40193
:1017B00084918093820161E089E00E94B90245C072
:1017C0001092900010929100809191008860809317
:1017D000910080919100816080939100F501849146
:1017E000E82FF0E0EE0FFF1FE956FD4F8591949131
:1017F0009093810180938001F401849180937F0113
:1018000061E089E00E94B9023AC017FD6FC061E053
:1018100089E00E94B902112321F0123009F466C058
:1018200012C083E085BD88E287BD4092900150924E
:101830009101609292017092930180916E0082609A
:1018400080936E0053C01130C1F480918100887F75
:10185000816080938100D0928900C092880040927C
:101860008C0150928D0160928E0170928F01809157
:101870006F00826080936F0039C0133039F480911B
:101880009100887F8160809391000EC0143039F4FC
:101890008091C100887F81608093C10017C01330A0
:1018A00019F0143099F022C0D0929900C09298009B
:1018B000409288015092890160928A0170928B0156
:1018C0008091710082608093710010C089E68093DE
:1018D000CF004092840150928501609286017092FF
:1018E00087018091720080648093720069E170E0EA
:1018F00080E090E00E941A030E94E50669E170E032
:1019000080E090E00E941A033092970120929601A5
:1019100062E370E080E090E00E941A030E94E50616
:1019200020E030E0232B09F441CD0E94000036CDA9
:10193000CF93DF93C0E0D0E02091F7013091F80120
:101940008091F5019091F601C217D30774F49E01BE
:10195000220F331FFC01E20FF31F8081918100975A
:1019600011F00E94A90D2196E7CF009721F0DF9199
:10197000CF910C94A90DDF91CF910895CF93DF9370
:10198000E3EEF1E01382128288EE93E0A0E0B0E093
:1019900084839583A683B7838CE291E091838083CF
:1019A000C1EFD1E01C861D861E861F8682E390E073
:1019B000998B888B1B8A1A8A8FEF9FEF9D8B8C8B5C
:1019C0009F8B8E8B83E190E09983888388E090E001
:1019D0000E94110DFC019D838C838AE091E091832C
:1019E00080838EE091E09383828382E191E095830E
:1019F000848386E191E09783868384E090E09F83EF
:101A00008E8380E493E09987888780E094E09B83CD
:101A10008A831B861A86DF91CF910895F8940C94DF
:101A2000C00E0F931F93CF93DF938230910510F474
:101A300082E090E0E0910C02F0910D0220E030E0B5
:101A4000A0E0B0E0309719F140815181028113810B
:101A500048175907C8F08417950769F4109731F0B3
:101A600012960C93129713961C9327C000930C02A6
:101A700010930D0222C02115310519F042175307AA
:101A800018F49A01BD01EF01DF01F801DBCF211548
:101A90003105F9F0281B390B2430310580F48A8197
:101AA0009B816115710521F0FB019383828304C042
:101AB00090930D0280930C02FE01329644C0FE0109
:101AC000E20FF31F819391932250310939832883C8
:101AD0003AC020910A0230910B02232B41F420914D
:101AE0001C0130911D0130930B0220930A022091BA
:101AF0001A0130911B012115310541F42DB73EB774
:101B000040911E0150911F01241B350BE0910A02E8
:101B1000F0910B02E217F307A0F42E1B3F0B2817DE
:101B2000390778F0AC014E5F5F4F2417350748F056
:101B30004E0F5F1F50930B0240930A0281939193C3
:101B400002C0E0E0F0E0CF01DF91CF911F910F9153
:101B50000895CF93DF93009709F481C0FC01329779
:101B600013821282A0910C02B0910D02109781F4A1
:101B700020813181820F931F20910A0230910B0244
:101B80002817390751F5F0930B02E0930A0267C05A
:101B9000ED0120E030E0CE17DF0740F44A815B81A1
:101BA0009E0141155105F1F0EA01F5CFD383C283BF
:101BB00040815181840F951FC817D90759F4888136
:101BC0009981840F951F0296918380838A819B81DE
:101BD000938382832115310529F4F0930D02E0935C
:101BE0000C023DC0E901FB83EA8349915991C40F7E
:101BF000D51FEC17FD0761F480819181840F951F3B
:101C00000296E90199838883828193819B838A83E9
:101C1000E0E0F0E012968D919C911397009719F0F7
:101C2000FD01DC01F7CF8D919C9111979D012E5FF5
:101C30003F4F820F931F20910A0230910B02281709
:101C4000390769F4309729F410920D0210920C02B2
:101C500002C013821282B0930B02A0930A02DF919A
:101C6000CF910895E89409C097FB3EF49095809534
:101C7000709561957F4F8F4F9F4F9923A9F0F92F52
:101C800096E9BB279395F695879577956795B795D0
:101C9000F111F8CFFAF4BB0F11F460FF1BC06F5FB6
:101CA0007F4F8F4F9F4F16C0882311F096E911C0C8
:101CB000772321F09EE8872F762F05C0662371F0E9
:101CC00096E8862F70E060E02AF09A95660F771FFD
:101CD000881FDAF7880F9695879597F908950E94DF
:101CE000740E08F48FEF0895990F0008550FAA0B92
:101CF000E0E8FEEF16161706E807F907C0F012161F
:101D00001306E407F50798F0621B730B840B950B21
:101D100039F40A2661F0232B242B252B21F4089576
:101D20000A2609F4A140A6958FEF811D811D089513
:101D3000A1E21A2EAA1BBB1BFD010DC0AA1FBB1FCF
:101D4000EE1FFF1FA217B307E407F50720F0A21B41
:101D5000B30BE40BF50B661F771F881F991F1A94AE
:101D600069F760957095809590959B01AC01BD01D8
:101D7000CF010895EE0FFF1F0590F491E02D099417
:101D800011E0C1E8D1E004C0FE010E94BA0E219624
:0A1D9000C238D107C9F7F894FFCF5D
:101D9A000100E1000000000000FFFF03BC02F401A3
:101DAA00BB02C800F3010000C70000000E022000B9
:101DBA00530156015B016001000000003204600219
:101DCA00F101B701DA01AC01FE01427574746F6E5C
:101DDA0020707265737365643A200058002E0041C2
:101DEA00003D00757000646F776E006C6566740064
:061DFA00726967687400C5
:00000001FF
