:100000000C940D020C9435020C9435020C943502BC
:100010000C9435020C9435020C9435020C94F807BC
:100020000C9435020C9435040C94E3030C943502C3
:100030000C9435020C9474040C9435020C94350223
:100040000C9499030C9435020C94D6020C94640819
:100050000C9435020C9435020C9435020C94350244
:100060000C9435020C94350208000000BE9224491D
:10007000123EABAAAA2ABECDCCCC4C3E00000080DA
:10008000BEABAAAAAA3E00000000BF000000803F4D
:100090000000000000084178D3BB4387D1133D190D
:1000A0000E3CC3BD4282AD2B3E68EC8276BED98F3A
:1000B000E1A93E4C80EFFFBE01C4FF7F3F0000007E
:1000C000000000407A10F35A00A0724E1809001088
:1000D000A5D4E80000E87648170000E40B540200BD
:1000E00000CA9A3B000000E1F505000080969800E8
:1000F000000040420F000000A08601000000102711
:1001000000000000E80300000000640000000000A0
:100110000A00000000000100000000002C76D888D2
:10012000DC674F0823DFC1DFAE59E1B1B796E5E3E5
:10013000E453C63AE651997696E8E6C28426EB89FE
:100140008C9B62ED407C6FFCEFBC9C9F40F2BAA59B
:100150006FA5F490055A2AF75C936B6CF9676DC133
:100160001BFCE0E40D47FEF520E6B500D0ED902E37
:100170000300943577050080841E080000204E0A95
:10018000000000C80C333333330F986E12831141D3
:10019000EF8D2114893BE65516CFFEE6DB18D1849E
:1001A0004B381BF77C1D901DA4BBE42420328472C5
:1001B0005E228100C9F124ECA1E53D27000000008A
:1001C000240027002A0000000000250028002B0042
:1001D00004040404040404040202020202020303ED
:1001E00003030303010204081020408001020408F5
:1001F00010200102040810202C206164633A2000C2
:10020000486967682076616C2063617020743A20C9
:10021000004C6F772076616C2063617020616463AD
:100220003A2000000000070002010000030406005D
:1002300000000000000000000000000000005F005F
:10024000000007000700147F147F14242A7F2A125D
:10025000231308646236495522500005030000004C
:100260001C2241000041221C0014083E081408080A
:100270003E080800503000000808080808006060C8
:10028000000020100804023E5149453E00427F40D4
:100290000042615149462141454B311814127F10EB
:1002A00027454545393C4A4949300171090503361E
:1002B00049494936064949291E003636000000568C
:1002C00036000008142241001414141414004122B2
:1002D00014080201510906324979413E7E1111117B
:1002E0007E7F494949363E414141227F4141221C9E
:1002F0007F494949417F090909013E4149497A7FBE
:100300000808087F00417F41002040413F017F08ED
:100310001422417F404040407F020C027F7F04084E
:10032000107F3E4141413E7F090909063E4151216E
:100330005E7F09192946464949493101017F01017A
:100340003F4040403F1F2040201F3F4038403F6318
:100350001408146307087008076151494543007F7A
:1003600041410002040810200041417F00040201C5
:100370000204404040404000010204002054545414
:10038000787F484444383844444420384444487FC3
:100390003854545418087E0901020C5252523E7FC0
:1003A0000804047800447D40002040443D007F1054
:1003B00028440000417F40007C041804787C080435
:1003C000047838444444387C14141408081414186D
:1003D0007C7C080404084854545420043F444020C2
:1003E0003C4040207C1C2040201C3C4030403C4491
:1003F000281028440C5050503C4464544C4400088D
:1004000036410000007F0000004136080010080857
:100410001008784641467800260E11241FBECFEF03
:10042000D8E0DEBFCDBF12E0A0E0B1E0E2E9F8E243
:1004300002C005900D92A43AB107D9F724E0A4EACE
:10044000B2E001C01D92AF30B207E1F712E0CDE09B
:10045000D2E004C02197FE010E944114CC30D107A4
:10046000C9F70E949F080C94C30E0C9400000895D5
:10047000CF92DF92EF92FF920F931F93CF93DF9370
:100480006C01EB017B01E40EF51E00E010E0CE15DF
:10049000DF0561F06991D601ED91FC910190F08149
:1004A000E02DC6010995080F191FF1CFC801DF9192
:1004B000CF911F910F91FF90EF90DF90CF90089513
:1004C0008E3008F08E508770806480937C0080911D
:1004D0007A00806480937A0080917A0086FDFCCF58
:1004E000809178002091790090E0922B08953FB799
:1004F000F8948091A8029091A902A091AA02B091CB
:10050000AB0226B5A89B05C02F3F19F00196A11D8F
:10051000B11D3FBFBA2FA92F982F8827820F911D99
:10052000A11DB11DBC01CD0142E0660F771F881FE0
:10053000991F4A95D1F70895CF92DF92EF92FF92DB
:10054000CF93DF936B017C010E947702EB01C11412
:10055000D104E104F10479F00E9477026C1B7D0B59
:10056000683E7340A0F381E0C81AD108E108F108A1
:10057000C851DC4FECCFDF91CF91FF90EF90DF902F
:10058000CF900895CF93DF93EC010E949406CE01A3
:10059000DF91CF910C942007CF93DF93EC010E9461
:1005A0003A05CE01DF91CF910C9420071F920F9254
:1005B0000FB60F9211242F934F935F938F939F93B6
:1005C000EF93FF938091C00082FD1CC02091C60074
:1005D00080918E0390918F034091900350919103ED
:1005E00001968F7399274817590771F0E0918E0390
:1005F000F0918F03E25BFC4F208390938F038093F5
:100600008E0302C08091C600FF91EF919F918F9160
:100610005F914F912F910F900FBE0F901F901895E3
:1006200090E0FC01ED5DFD4F2491FC01EC51FE4F8B
:100630003491FC01E053FE4FE491EE2309F43CC0F9
:10064000222339F1233091F038F42130A9F02230FF
:1006500001F584B58F7D12C0263091F02730A1F0CE
:100660002430B9F4809180008F7D03C08091800098
:100670008F77809380000DC084B58F7784BD09C0CB
:100680008091B0008F7703C08091B0008F7D809300
:10069000B000F0E0EE0FFF1FEA53FE4FA591B491BA
:1006A0009FB7F894611104C08C913095382302C033
:1006B000EC913E2B3C939FBF0895CF93DF9390E046
:1006C000FC01EC51FE4F2491FC01E053FE4F84915C
:1006D000882361F190E0880F991FFC01E454FE4FDC
:1006E000C591D491FC01EA53FE4FA591B4916111DB
:1006F00009C09FB7F8948881209582238883EC9164
:100700002E230BC0623061F49FB7F8948881322F9A
:10071000309583238883EC912E2B2C939FBF06C0AA
:100720008FB7F894E8812E2B28838FBFDF91CF916C
:1007300008951F920F920FB60F9211242F933F939B
:100740008F939F93AF93BF938091B4039091B50320
:10075000A091B603B091B7033091A70223E0230F15
:100760002D3720F40196A11DB11D05C026E8230FE9
:100770000296A11DB11D2093A7028093B40390930C
:10078000B503A093B603B093B7038091A8029091EC
:10079000A902A091AA02B091AB020196A11DB11DC0
:1007A0008093A8029093A902A093AA02B093AB02EF
:1007B000BF91AF919F918F913F912F910F900FBE5D
:1007C0000F901F9018951F920F920FB60F92112441
:1007D0008F939F9380914003811111C08091860077
:1007E0009091870090933B0380933A0310923F03CC
:1007F00010923E03809181008F7B809381008091D5
:1008000040038130A9F480918600909187009093F5
:1008100037038093360380913E0390913F0390937A
:100820003903809338038091810080648093810034
:1008300080914003823069F4809186009091870016
:1008400090933D0380933C0380916F008E7D809355
:100850006F00809140038F5F809340039F918F9141
:100860000F900FBE0F901F9018951F920F920FB60A
:100870000F9211242F933F934F935F936F937F9326
:100880008F939F93AF93BF93EF93FF938AE08093EF
:10089000B2008091A5029091A60201969093A602C3
:1008A0008093A5028091A5029091A60282FF0BC0C1
:1008B0009091A40281E089278093A4026091A40210
:1008C0008DE00E941003FF91EF91BF91AF919F9136
:1008D0008F917F916F915F914F913F912F910F90E9
:1008E0000FBE0F901F9018951F920F920FB60F9288
:1008F00011248F939F9380913E0390913F03019623
:1009000090933F0380933E039F918F910F900FBE72
:100910000F901F9018950F931F93CF93DF93FC01B7
:10092000A685B7858D01005C1F4FE80188819981FC
:1009300001968F739927AD014E5B5F4FEA012881C5
:10094000398128173907D1F3E80128813981A20FAD
:10095000B31F6C93A685B785A05CBF4F11969C937F
:100960008E93A689B7892C9181E090E0078C02C014
:10097000880F991F0A94E2F7822B8C9381E081A360
:100980000488F589E02D80818064808381E090E097
:10099000DF91CF911F910F910895CF93DF936DE079
:1009A00082E993E00E948B04EC016AE082E993E023
:1009B0000E948B048C0F9D1FDF91CF910895FC0145
:1009C00081A1882329F0A489B5898C9186FFFBCF6A
:1009D00011A20895FC01A485B585FD01E05CFF4FDF
:1009E000208131813296808191812817390779F0F1
:1009F00080819181A80FB91F8C91208131812F5F57
:100A00003F4F2F7333273183208390E008958FEF7A
:100A10009FEF0895DC011C96ED91FC911D97DF017D
:100A2000A05CBF4F2D913C91119712968D919C9196
:100A300011972817390739F08D919C91E80FF91F0C
:100A4000808190E008958FEF9FEF0895FC01248549
:100A50003585F901E05CFF4F8081918132962081DC
:100A60003181821B930B8F739927089582E993E05C
:100A70000C942605009769F0FC0101900020E9F72D
:100A80003197AF01481B590BBC0182E993E00C94EC
:100A9000380280E090E008958F929F92AF92BF92CB
:100AA000EF92FF920F931F93CF93DF93CDB7DEB7F3
:100AB000A1970FB6F894DEBF0FBECDBF162F042F3F
:100AC00019A2423008F40AE07E0121E2E20EF11C94
:100AD000802E912CA12CB12C612FA50194010E9494
:100AE0001F14029F1019112481E0E81AF1081A302E
:100AF00014F4105D01C0195CF7011083122F732FDD
:100B0000CA01232B242B252B39F7C7010E943A0554
:100B1000A1960FB6F894DEBF0FBECDBFDF91CF9187
:100B20001F910F91FF90EF90BF90AF909F908F908B
:100B30000895CF92DF92EF92FF92CF93DF936B01F4
:100B40007C016DE282E993E00E948B04EC01662750
:100B50007727CB016C197D098E099F094AE00E9415
:100B60004C058C0F9D1FDF91CF91FF90EF90DF9090
:100B7000CF9008958F929F92AF92BF92CF92DF92C3
:100B8000EF92FF920F931F93CF93DF936B017C0142
:100B9000142F9B01AC010E94BD13882319F087E933
:100BA00092E027C046015701E894B7F82FEF3FEFD6
:100BB0004FE75FE7C501B4010E94BD1381110DC06D
:100BC0002FEF3FEF4FE75FE7C501B4010E949C1193
:100BD00018161CF48BE992E00CC02FEF3FEF4FE7A3
:100BE0005FE4C701B6010E94FB12181684F48FE976
:100BF00092E0DF91CF911F910F91FF90EF90DF90E6
:100C0000CF90BF90AF909F908F900C943A052FEFAC
:100C10003FEF4FE75FECC701B6010E949C1187FDD3
:100C2000E6CF20E030E0A901C701B6010E949C1187
:100C300087FF0BC06DE282E993E00E948B04EC0118
:100C4000F7FAF094F7F8F09402C0C0E0D0E000E0CA
:100C500060E070E080E09FE3101741F020E030E0BA
:100C600040E251E40E94A1110F5FF6CFA701960167
:100C70000E9430116B017C010E941A124B015C0131
:100C80004AE00E944C05C80FD91F112309F43EC049
:100C9000C501B4010E9449129B01AC01C701B60114
:100CA0000E942F116B017C018FE392E00E943A05B4
:100CB000C80FD91F20E030E040E251E4C701B6017F
:100CC0000E9450134B015C010E9413126B01770FBD
:100CD000EE08FF08F7FE05C0C701B6010E9499059E
:100CE00005C04AE0C701B6010E944C05C80FD91FD4
:100CF000C701B6010E944B129B01AC01C501B401B2
:100D00000E942F116B017C011150A1F6CE01DF91E1
:100D1000CF911F910F91FF90EF90DF90CF90BF90F8
:100D2000AF909F908F900895CF93DF930E943A05E4
:100D3000EC010E94CD048C0F9D1FDF91CF9108958F
:100D40002FB7F8948091B4039091B503A091B603A6
:100D5000B091B7032FBF8093BF039093C003A093BC
:100D6000C103B093C2038FEB93E00895DF92EF923B
:100D7000FF920F931F93CF93DF93082FF62E80914E
:100D8000C5030E94100360E08091C6030E94100317
:100D9000E090C303D090C403C7E0D0E010E0B801F6
:100DA0000C2E02C0759567950A94E2F761708D2D3F
:100DB0000E94100361E08E2D0E94100360E08E2DD2
:100DC0000E941003219758F761E08091C6030E94AA
:100DD0001003FF20C9F08091C80390E0019664E5FC
:100DE00070E00E94F7138093C80381110DC08091B9
:100DF000C90390E0019666E070E00E94F713982F17
:100E00008093C90381E0911180E0DF91CF911F9120
:100E10000F91FF90EF90DF90089560E00C94B6067C
:100E2000CF93C82FE3ECF3E01582868380E80E941D
:100E30000D078C2F80640E940D0781E0CF910895EB
:100E40009F92AF92BF92CF92DF92EF92FF920F9359
:100E50001F93CF93DF93EC01D12C85E0C82E06E0E1
:100E600010E089918823C9F18A30A1F41092C80357
:100E70008091C90390E00196B8010E94F713809316
:100E8000C9030E9410078091C9038111EACFDD24B4
:100E9000D394E7CF90E08097C89E9001C99E300D13
:100EA0001124C901895C9D4F5C01912CE12CF12C2E
:100EB000F501EE0DFF1D849161E00E94B6068823C6
:100EC00011F0992493949FEFE91AF90A85E0E81646
:100ED000F10471F79110DBCFC4CF8D2DDF91CF914D
:100EE0001F910F91FF90EF90DF90CF90BF90AF9048
:100EF0009F90089561E083E00E945D03E6E2F2E0E6
:100F0000E491E33019F150F4E130D1F0E230E1F551
:100F100084B5806284BD88E788BD0895E63011F10C
:100F2000E73049F1E43081F5809180008062809360
:100F3000800088E790E090938B0080938A0008956A
:100F400084B5806884BD88E787BD0895809180005E
:100F500080688093800088E790E090938900809378
:100F6000880008958091B00080688093B00088E781
:100F70008093B30008958091B00080628093B000A8
:100F800088E78093B400089560E083E00C94100338
:100F9000CF93DF93BC01990F880B990B97FF03C088
:100FA0000E94990503C04AE00E944C05EC010E9492
:100FB000CD048C0F9D1FDF91CF9108950F931F9348
:100FC000CF93DF9300E010E0FC016491EC012196E7
:100FD000662341F082E993E00E948B04080F191FF9
:100FE000CE01F2CFC801DF91CF911F910F910895EB
:100FF0001F920F920FB60F9211242F933F938F934E
:101000009F93AF93BF9320914C0330914D038091F8
:101010004A0390914B0328173907C8F18091480380
:1010200090914903019739F0880F991F880F991FF4
:1010300002970197F1F780918100887F809381006A
:10104000809170008D7F8093700080916E00816030
:1010500080936E0081E0809347038091CA032091C2
:1010600084003091850090E0A0E0B0E0DC01992799
:101070008827820F931FA11DB11D80934303909376
:101080004403A0934503B09346031092CA03809192
:101090004C0390914D03019690934D0380934C0324
:1010A000B09B07C08091CA038F5F8093CA0381E021
:1010B00086BBBF91AF919F918F913F912F910F90E0
:1010C0000FBE0F901F9018951F920F920FB60F92A0
:1010D00011242F933F938F939F93EF93FF9320912E
:1010E0000B0430910C0480910D0490910E0428178C
:1010F000390731F48091C1008F7D8093C10014C005
:10110000E0910D04F0910E04E553FC4F2081809195
:101110000D0490910E0401968F73992790930E04FD
:1011200080930D042093C600FF91EF919F918F91C2
:101130003F912F910F900FBE0F901F901895CF9356
:10114000DF93CDB7DEB76C970FB6F894DEBF0FBE56
:10115000CDBF789484B5826084BD84B5816084BD40
:1011600085B5826085BD85B5816085BD80916E0045
:10117000816080936E001092810080918100826076
:1011800080938100809181008160809381008091B3
:1011900080008160809380008091B10084608093A2
:1011A000B1008091B00081608093B00080917A009E
:1011B000846080937A0080917A00826080937A00C4
:1011C00080917A00816080937A0080917A008068B3
:1011D00080937A001092C100E091A603F091A703DA
:1011E00081E090E09C010090B20302C0220F331F07
:1011F0000A94E2F72083E091A203F091A303108206
:10120000E091A403F091A50323E320831092B3039C
:10121000E091A803F091A90340819C010090AE03E6
:1012200002C0220F331F0A94E2F7242B2083E0919F
:10123000A803F091A90340819C010090AF0302C074
:10124000220F331F0A94E2F7242B2083E091A80396
:10125000F091A90340819C010090B00302C0220FCD
:10126000331F0A94E2F7242B2083E091A803F09126
:10127000A90320810090B10302C0880F991F0A942E
:10128000E2F780958223808360E088E00E945D031E
:1012900061E089E00E945D0361E08DE00E945D03F2
:1012A00061E083E00E945D030E947A07F894109247
:1012B0008000109281008EEE95E8909385008093D7
:1012C00084008091810080648093810080916F0010
:1012D000816280936F0080918100816080938100A2
:1012E000789461E08091C3030E945D0361E0809186
:1012F000C4030E945D0361E08091C5030E945D0309
:1013000061E08091C6030E945D0361E08091C703A4
:101310000E945D0360E08091C7030E94100361E0BA
:101320008091C7030E94100381E20E940D0780EBA9
:101330000E940D0784E00E940D0784E10E940D07C2
:1013400080E20E940D078CE00E940D0781E20E945E
:101350000D0782EB0E940D0780E20E940D0780E0DE
:101360000E94100708EF11E061E080E00E94B606DD
:1013700001501109C9F780E00E94100760ED77E085
:1013800080E090E00E949C0260ED77E080E090E0D9
:101390000E949C0280E00E94100788E391E00E9476
:1013A000200760ED77E080E090E00E949C028AE4F4
:1013B00091E00E94940689E691E00E94940689E8F3
:1013C00091E00E94940685EA91E00E949406B4E6BA
:1013D0002B2E312C809142038111FDC22FB7F8943E
:1013E0008091B4039091B503A091B603B091B70377
:1013F0002FBF4091BF035091C0036091C103709112
:10140000C203841B950BA60BB70B8B3F9105A1055F
:10141000B10508F4B4C3809141038F5F833019F0A4
:101420008093410302C010924103E0914103F0E038
:10143000EE0FFF1FE85EFE4F808191810E943A050A
:1014400084EC91E00E94940680914103813009F47C
:10145000C6C0E0F0823009F482C2833009F08FC345
:1014600081E08093420361E089E00E94100365E01F
:1014700070E080E090E00E949C0260E089E00E94C1
:1014800010038AE396E00197F1F779C388E090E0D2
:10149000909349038093480380916E008E7F8093E0
:1014A0006E0082EC90E00197F1F730924B032092AE
:1014B0004A038091480390914903892B31F4A1E0BC
:1014C000B0E0B0934903A0934803109280001092BB
:1014D00081001092850010928400809181008160CB
:1014E000809381008091810082608093810080914F
:1014F00081008460809381001092B0001092B1004E
:101500008091B10081608093B1008091B1008D7FA6
:101510008093B1008091B10084608093B10080918C
:10152000B0008E7F8093B0008091B0008260809385
:10153000B0008091B000877F8093B0008CE78093EB
:10154000B3001092470310924D0310924C0382E0B7
:1015500083BD1092B2001092850010928400809199
:10156000700082608093700080918100876080931A
:101570008100309143034091440350914503E09131
:1015800046036091AC027091AD028091AE029091E1
:10159000AF0220914703211105C0632F742F852FBF
:1015A0009E2FF7CF6093AC027093AD028093AE0292
:1015B0009093AF020E94491200EB12E022E043E058
:1015C0000E94A30E84E00E94100781ED91E00E942A
:1015D000CC02C8010E94CC0286ED91E0BBC160E064
:1015E0008091BC030E945D0361E08091BA030E9478
:1015F00010038091BC030E9460028C0160E0809126
:10160000BA030E94100361E08091BC030E945D0355
:10161000E090B803F090B903C70166ED7FEF0E9438
:101620000B146E0D7F1D061717076CF5B801012E00
:10163000000C880B990B0E944B122CEE31E542ED09
:1016400051E40E9450134B015C01B701601B710B08
:101650001616170614F061E070E0072E000C880BD8
:10166000990B0E944B129B01AC01C501B4010E9471
:10167000A1114B015C018091BE03882309F43AC19A
:1016800081E192E032C182E090E00197F1F762E0FF
:101690008091BA030E945D030E9477024B015C01B6
:1016A0008AE193E00197F1F760E08091BC030E942A
:1016B0005D030E947702698F7A8F8B8F9C8F61E028
:1016C0008091BA030E94100361E08091BA030E94E6
:1016D0005D038091BC030E9460022091B8033091A9
:1016E000B9038901081B190BC901B1010E940B1430
:1016F000061717070CF059C062E08091BA030E94E8
:101700005D0361E08091BC030E945D030E9477024B
:101710006B017C0164E170E080E090E00E949C023B
:1017200060E08091BC030E945D030E9477022B0160
:101730003C0161E08091BA030E94100361E0809156
:10174000BA030E945D038091BC030E946002009175
:10175000B8031091B903081B190B2091B8033091FD
:10176000B903A90137FF02C0495F5F4FF3E0559508
:101770004795FA95E1F7241B350B821793075CF523
:1017800062E08091BC030E945D0365E070E080E050
:1017900090E00E949C0260E08091BC030E945D0387
:1017A0008091BC030E946002D8CF62E08091BC03AC
:1017B0000E945D0361E070E080E090E00E949C0286
:1017C00060E08091BC030E945D03412C512C3201EA
:1017D000C12CD12C7601898D9A8DAB8DBC8D88164C
:1017E0009906AA06BB0638F488199909AA09BB0903
:1017F0004C015D0108C0898D9A8DAB8DBC8D881A16
:10180000990AAA0ABB0AC414D504E604F70448F4EA
:10181000D301C2018C199D09AE09BF096C017D017C
:1018200004C0C418D508E608F708240135014C0C9B
:101830005D1C6E1C7F1C60E08091BA030E94100347
:1018400060E08091BC030E94100361E08091BC03C2
:101850000E945D03B801012E000C880B990B0E94B9
:101860004B126B017C016091B8037091B903072E94
:10187000000C880B990B0E944B129B01AC01C70115
:10188000B6010E94A1119B01AC0160E070E080E80C
:101890009FE30E942F110E9408136B017C01C3017A
:1018A000B2010E944912905820E030E04AE754E427
:1018B0000E9450132AE939E94DE152E40E94A11136
:1018C000A70196010E94A1114B015C018091BE030A
:1018D000882381F080E092E00E94DE074AE0C301A5
:1018E000B2010E944C0588EF91E00E94DE07C8011A
:1018F0000E94C80720E030E04AE754E4C501B40183
:101900000E94FB1287FD0FC020E030E04AE754E45C
:10191000C501B4010E94A1114B015C01E4E3EE2E6C
:10192000E1E0FE2E04C070E3E72E71E0F72E00EB3D
:1019300012E022E043E0C501B4010E94A30E82E060
:101940000E9410078AED91E00E942007C8010E94C2
:10195000CC02C7010E94C2020E94A00610C183E00F
:101960000E9410078FED91E00E942007E12CF12CDE
:101970008EE08E0D0E946002BC01990F880B990BBE
:101980000E944B122AE038E240EA5BE30E945013C7
:1019900000EB12E022E043E00E94A30E81E892E017
:1019A000E114F10409F04FC10E942007C8010E9410
:1019B000200783EE91E00E94200780EB92E00E94D6
:1019C0003A059FEFE91AF90AA7E0EA16F10481F651
:1019D00082E892E0BFCF80914003833009F0CFC00E
:1019E00060913E0370913F0340913C0350913D0351
:1019F00020913A0330913B03809138039091390351
:101A00008091360390913703CB01A0E0B0E0DC0178
:101A100099278827840F951FA11DB11DBC01CD01F9
:101A2000621B730B810991090E94491220E030E08A
:101A300040E85DE30E9450139B01AC0160E070E060
:101A400080E89FE30E94A11120E034E244E759E4DA
:101A50000E9450136B017C012DEB37E346E855E300
:101A60000E945013A70196010E94501320E030E01D
:101A700040E850E40E9450132BED3FE049E450E46D
:101A80000E9450132BED3FE049E450E40E945013B4
:101A90009B01AC0160E070E080E89FE30E94A1112F
:101AA00020E034E244E759E40E9450136B017C01CA
:101AB0006093300370933103809332039093330328
:101AC00020E034E244E759E40E94FB12181654F077
:101AD00020E030E040E85FE3C701B6010E949C11BE
:101AE00087FF03C086EE91E033C08EE792E00E944C
:101AF0003A05C0903003D0903103E0903203F0906B
:101B0000330320E030E04AE754E4C701B6010E9405
:101B1000FB121816B4F420E030E04AE754E4C701A1
:101B2000B6010E94A111609330037093310380933A
:101B300032039093330342E00E94BA0587EF91E0AD
:101B400007C040E0C701B6010E94BA058BEF91E0E3
:101B50000E9494061092400310923F0310923E039D
:101B6000109239031092380381E286BB80916F0096
:101B7000816280936F000E94A006109242030E942F
:101B80007A0761E083E00E945D032FB7F8948091AB
:101B9000B4039091B503A091B603B091B7032FBFE2
:101BA0000091BF031091C0032091C1033091C20383
:101BB000BC01CD01601B710B820B930B2091420382
:101BC000211105C028EE33E040E050E004C024E6D7
:101BD00030E040E050E018E1E0E0F1E0DE01119695
:101BE00001900D921A95E1F70E941F14622F617007
:101BF0008DE00E94100380E00E9410078091340362
:101C0000909135039C012F5F3F4F30933503209314
:101C100034036CE070E00E940B14FC01EE0FFF1F18
:101C200081E090E08C0F9D1FE80FF91F808191816A
:101C30000E94200764E670E080E090E00E949C0231
:101C40000E943605C7CB0E943A05B7CECF93DF93EB
:101C5000E2E9F3E01382128288EE93E0A0E0B0E0C4
:101C600084839583A683B78384E291E09183808304
:101C70008EE493E0958784878BEC93E09787868743
:101C800085EC90E0918B808B84EC90E0938B828B41
:101C900080EC90E0958B848B81EC90E0978B868B29
:101CA00082EC90E0918F808F86EC90E0938F828F12
:101CB00084E0848F83E0858F87E0868F95E0978F1F
:101CC00021E020A3E3ECF3E02DE020832BE021834F
:101CD0009283838386E08483158216822FB7F894DB
:101CE0008091B4039091B503A091B603B091B7036E
:101CF0002FBF8093BF039093C003A093C103B09301
:101D0000C203C8EBD3E08FEF93E09983888382E02E
:101D100090E09B838A8380E190E09D838C8360E0E8
:101D200082E00E94100360E08C810E94100361E059
:101D30008A810E945D0361E08C810E945D031E82A6
:101D4000DF91CF910895EF920F931F93CF93DF937D
:101D5000E80147FD02C034E001C034E1042E000C6C
:101D6000550B57FF03C0519541955109E32E022FA2
:101D7000242FAE010E94C60ECE01DF91CF911F919C
:101D80000F91EF900895F8940C944714A9E0B0E0F7
:101D9000ECECFEE00C94FE106A01122FB02E2BE347
:101DA000201720F0FF24F394F00E02C02CE3F22E53
:101DB0000F2D27E0AE014F5F5F4F0E942010BC0146
:101DC0004981842F8970813031F0E1FC06C0E0FE4A
:101DD00006C090E205C09DE203C09BE201C090E016
:101DE0005E2D507143FF3CC0911102C083E001C0E1
:101DF00084E0811718F4212F281B01C020E0511125
:101E00000BC0F601822F30E2882319F03193815004
:101E1000FBCFC20ED11C20E0992329F0D6019C9360
:101E2000F60131966F01C6010396E2FE0AC03EE458
:101E3000D6013C9341E411964C93119712963C9332
:101E400006C03EE6F601308341E641833283FC0161
:101E5000322F40E2332309F442C041933150FACF8C
:101E600042FF44C0911102C083E001C084E08117A9
:101E700018F4212F281B01C020E051110BC0F601DE
:101E8000822F30E2882319F031938150FBCFC20EAC
:101E9000D11C20E0992329F0D6019C93F6013196BC
:101EA0006F01C6010396E2FE0BC039E4D6013C93F4
:101EB0003EE411963C93119736E412963C9307C08A
:101EC00039E6F60130833EE6318336E63283FC01A3
:101ED000322F40E2332319F041933150FBCFFC0104
:101EE000E20FF11D10828EEF9FEFA6C021E030E0DF
:101EF000911102C020E030E0161617061CF4FB0119
:101F0000319602C0E1E0F0E02E0F3F1FBB2021F030
:101F1000EB2DF0E0319602C0E0E0F0E02E0F3F1F25
:101F2000E12FF0E02E173F071CF4121B212F01C0F8
:101F300020E08E2D887159F4F601822F30E288233B
:101F400019F031938150FBCFC20ED11C20E09923B0
:101F500029F0D6019C93F60131966F0151110BC007
:101F6000F601822F90E3882319F091938150FBCFE3
:101F7000C20ED11C20E00F2D060F9A81342F307134
:101F800044FF03C0913309F40150101624F40930C2
:101F900018F008E001C001E0AB0177FF02C040E0AB
:101FA00050E0FB01E41BF50BA1E0B0E0AC0FBD1F5E
:101FB000EA0FFB1F8EE2A82E4B01801A91080B2D11
:101FC00010E01195019511094F3FBFEF5B0721F418
:101FD000D601AC9211966D01641775072CF084162A
:101FE000950614F4818101C080E341505109319676
:101FF000D60111967D014017510724F0D6018C932C
:102000006701E2CF6417750739F4963320F49533EE
:1020100019F4311101C081E3F6018083F701822FA9
:1020200090E2882319F091938150FBCFF701E20FE2
:10203000F11D108280E090E02996ECE00C941A11DA
:10204000283008F027E03327DA01990F311D87FD8A
:10205000916000966105710539F432602E5F3D9301
:1020600030E32A95E1F708959F3F30F080387105FD
:10207000610509F03C5F3C5F3D93913008F080685A
:10208000911DDF93CF931F930F93FF92EF92192F20
:10209000987F9695E92F96959695E90FFF27E45E30
:1020A000FE4F99273327EE24FF24A701E70105906F
:1020B0000894079428F4360FE71EF81E491F511D97
:1020C000660F771F881F991F0694A1F70590079444
:1020D00028F4E70EF81E491F561FC11D770F881FF1
:1020E000991F661F0694A1F70590079428F4F80E2F
:1020F000491F561FC71FD11D880F991F661F771FC5
:102100000694A1F70590079420F4490F561FC71FA6
:10211000D81F990F661F771F881F0694A9F784910F
:102120001095177041F0D695C79557954795F79438
:10213000E7941A95C1F7E2ECF0E0689415901591D8
:1021400035916591959105907FE27395E118F10ABB
:10215000430B560BC90BD009C0F7E10CF11E431F0E
:10216000561FC91FD01D7EF4703311F48A95E6CF37
:10217000E894015030F0080F0AF40027021708F421
:10218000202F2395022F7A3328F079E37D932A9527
:10219000E9F710C07D932A9589F60694979567957F
:1021A000379517951794E118F10A430B560BC90B95
:1021B000D00998F023957E9173957A3308F070E3F7
:1021C0007C932013B8F77E9170617D9330F08395F6
:1021D00071E37D9370E32A95E1F71124EF90FF906E
:1021E0000F911F91CF91DF91992787FD90950895C9
:1021F0002F923F924F925F926F927F928F929F9217
:10220000AF92BF92CF92DF92EF92FF920F931F9304
:10221000CF93DF93CDB7DEB7CA1BDB0B0FB6F894B5
:10222000DEBF0FBECDBF09942A88398848885F84F5
:102230006E847D848C849B84AA84B984C884DF8066
:10224000EE80FD800C811B81AA81B981CE0FD11D4A
:102250000FB6F894DEBF0FBECDBFED010895505804
:10226000BB27AA270E9447110C94C1120E94B312E7
:1022700038F00E94BA1220F039F49F3F19F426F486
:102280000C94B0120EF4E095E7FB0C94AA12E92F1F
:102290000E94D21258F3BA17620773078407950792
:1022A00020F079F4A6F50C94F4120EF4E0950B2EC0
:1022B000BA2FA02D0B01B90190010C01CA01A00198
:1022C0001124FF27591B99F0593F50F4503E68F1F3
:1022D0001A16F040A22F232F342F4427585FF3CF34
:1022E000469537952795A795F0405395C9F77EF405
:1022F0001F16BA0B620B730B840BBAF09150A1F04E
:10230000FF0FBB1F661F771F881FC2F70EC0BA0FD3
:10231000621F731F841F48F4879577956795B7955B
:10232000F7959E3F08F0B0CF9395880F08F0992756
:10233000EE0F9795879508950E94861208F481E024
:1023400008950E94B5110C94C1120E94BA1258F05F
:102350000E94B31240F029F45F3F29F00C94AA12B6
:1023600051110C94F5120C94B0120E94D21268F321
:102370009923B1F3552391F3951B550BBB27AA273E
:1023800062177307840738F09F5F5F4F220F331F78
:10239000441FAA1FA9F335D00E2E3AF0E0E832D040
:1023A00091505040E695001CCAF72BD0FE2F29D043
:1023B000660F771F881FBB1F261737074807AB0715
:1023C000B0E809F0BB0B802DBF01FF2793585F4F8A
:1023D0003AF09E3F510578F00C94AA120C94F51235
:1023E0005F3FE4F3983ED4F3869577956795B7956C
:1023F000F7959F5FC9F7880F911D9695879597F977
:102400000895E1E0660F771F881FBB1F62177307EF
:102410008407BA0720F0621B730B840BBA0BEE1F04
:1024200088F7E09508950E941A126894B1110C94EF
:10243000F51208950E94DA1288F09F5798F0B92F8C
:102440009927B751B0F0E1F0660F771F881F991FE9
:102450001AF0BA95C9F714C0B13091F00E94F41285
:10246000B1E008950C94F412672F782F8827B85F95
:1024700039F0B93FCCF3869577956795B395D9F741
:102480003EF490958095709561957F4F8F4F9F4F4B
:102490000895E89409C097FB3EF490958095709557
:1024A00061957F4F8F4F9F4F9923A9F0F92F96E9A0
:1024B000BB279395F695879577956795B795F11115
:1024C000F8CFFAF4BB0F11F460FF1BC06F5F7F4FB2
:1024D0008F4F9F4F16C0882311F096E911C07723C4
:1024E00021F09EE8872F762F05C0662371F096E8CD
:1024F000862F70E060E02AF09A95660F771F881F9C
:10250000DAF7880F9695879597F90895990F00083F
:10251000550FAA0BE0E8FEEF16161706E807F907B5
:10252000C0F012161306E407F50798F0621B730B50
:10253000840B950B39F40A2661F0232B242B252BD1
:1025400021F408950A2609F4A140A6958FEF811D74
:10255000811D089597F99F6780E870E060E0089515
:102560009FEF80EC089500240A94161617061806AB
:102570000906089500240A94121613061406050687
:102580000895092E0394000C11F4882352F0BB0F18
:1025900040F4BF2B11F460FF04C06F5F7F4F8F4F7B
:1025A0009F4F089557FD9058440F551F59F05F3FB6
:1025B00071F04795880F97FB991F61F09F3F79F065
:1025C00087950895121613061406551FF2CF4695E7
:1025D000F1DF08C0161617061806991FF1CF869569
:1025E0007105610508940895E894BB27662777274D
:1025F000CB0197F908950E94861208F48FEF089591
:1026000016F00C94C2130C94B01268940C94AA1295
:102610000E94DA12A8F39923C1F3AEF3DF93CF93AC
:102620001F930F93FF92C92FDD2788232AF021974C
:10263000660F771F881FDAF720E030E040E85FEB95
:102640009FE3883920F0803E38F021968F770E94F2
:102650003011E8E6F0E004C00E943011E5E9F0E056
:102660000E94D0138B01BE01EC01FB2E6F57710944
:102670007595771F880B990B0E944B1228E132E762
:1026800041E35FE30E946313AF2D9801AE01FF9019
:102690000F911F91CF91DF910E9447110C94C112AD
:1026A0000E9463130C94C1120E94B31238F00E946E
:1026B000BA1220F0952311F00C94AA120C94B012C7
:1026C00011240C94F5120E94D21270F3959FC1F35D
:1026D000950F50E0551F629FF001729FBB27F00DD0
:1026E000B11D639FAA27F00DB11DAA1F649F662725
:1026F000B00DA11D661F829F2227B00DA11D621F74
:10270000739FB00DA11D621F839FA00D611D221F2D
:10271000749F3327A00D611D231F849F600D211D11
:10272000822F762F6A2F11249F5750409AF0F1F094
:1027300088234AF0EE0FFF1FBB1F661F771F881FFD
:1027400091505040A9F79E3F510580F00C94AA1279
:102750000C94F5125F3FE4F3983ED4F38695779599
:102760006795B795F795E7959F5FC1F7FE2B880FA3
:10277000911D9695879597F908950E948612880B6A
:10278000990B08959F3F31F0915020F487957795EC
:102790006795B795880F911D9695879597F9089538
:1027A000DF93CF931F930F93FF92EF92DF927B0102
:1027B0008C01689406C0DA2EEF010E946313FE01BB
:1027C000E894A5912591359145915591A6F3EF0196
:1027D0000E944711FE019701A801DA9469F7DF9082
:1027E000EF90FF900F911F91CF91DF910895AA1B59
:1027F000BB1B51E107C0AA1FBB1FA617B70710F0EC
:10280000A61BB70B881F991F5A95A9F7809590951D
:10281000BC01CD01089597FB072E16F4009407D054
:1028200077FD09D00E94F71307FC05D03EF4909580
:1028300081959F4F0895709561957F4F0895A1E20E
:102840001A2EAA1BBB1BFD010DC0AA1FBB1FEE1F2A
:10285000FF1FA217B307E407F50720F0A21BB30B75
:10286000E40BF50B661F771F881F991F1A9469F7F1
:1028700060957095809590959B01AC01BD01CF014D
:102880000895EE0FFF1F0590F491E02D0994F89440
:02289000FFCF78
:10289200FF010A02150220022B02360241024C02FB
:1028A200570262026D027802830288028D0292024E
:1028B200000000008B0438022605EA040A05DF0442
:1028C20020704600206E46004D656570204D65659E
:1028D2007021203D3D3D3D3E3E00436F6E6E65637F
:1028E2007420496E647563746F7220746F2050692E
:1028F2006E2044382C20443900436F6E6E65637439
:1029020020436170616369746F7220746F20506933
:102912006E2044372C20413200436F6E6E65637423
:10292200204672657175656E637920746F205069F7
:102932006E20443500436F6E6E65637420566F6C73
:102942007461676520746F2050696E204130202DBC
:1029520020413300206D6561737572656D656E741B
:102962000066203D200020487A0043203D2000558B
:10297200203D0020560020204F7574206F662052A3
:10298200616E6765202000206D4800207548002098
:10299200202E2E6F2020202020002020202E2E6F7F
:1029A2002020202000202020202E2E6F20202000FA
:1029B20020202020202E2E6F2020002020202020CA
:1029C200202E2E6F2000202020202020206F2E2E4F
:1029D200002020202020206F2E2E200020202020CA
:1029E200206F2E2E202000202020206F2E2E20202F
:1029F20020002020206F2E2E202020200020206F5B
:102A02002E2E202020202000202E2E6F202020205D
:102A120020200066726571006361702E00766F6C13
:102A22007400696E6475006E616E00696E66006F97
:042A320076660000C4
:00000001FF
